{
  "_format": "hh-sol-artifact-1",
  "contractName": "TinyVillage",
  "sourceName": "contracts/TinyVillage.sol",
  "abi": [
    {
      "inputs": [],
      "stateMutability": "nonpayable",
      "type": "constructor"
    },
    {
      "anonymous": false,
      "inputs": [
        {
          "indexed": true,
          "internalType": "address",
          "name": "account",
          "type": "address"
        },
        {
          "indexed": true,
          "internalType": "address",
          "name": "operator",
          "type": "address"
        },
        {
          "indexed": false,
          "internalType": "bool",
          "name": "approved",
          "type": "bool"
        }
      ],
      "name": "ApprovalForAll",
      "type": "event"
    },
    {
      "anonymous": false,
      "inputs": [
        {
          "indexed": true,
          "internalType": "address",
          "name": "operator",
          "type": "address"
        },
        {
          "indexed": true,
          "internalType": "address",
          "name": "from",
          "type": "address"
        },
        {
          "indexed": true,
          "internalType": "address",
          "name": "to",
          "type": "address"
        },
        {
          "indexed": false,
          "internalType": "uint256[]",
          "name": "ids",
          "type": "uint256[]"
        },
        {
          "indexed": false,
          "internalType": "uint256[]",
          "name": "values",
          "type": "uint256[]"
        }
      ],
      "name": "TransferBatch",
      "type": "event"
    },
    {
      "anonymous": false,
      "inputs": [
        {
          "indexed": true,
          "internalType": "address",
          "name": "operator",
          "type": "address"
        },
        {
          "indexed": true,
          "internalType": "address",
          "name": "from",
          "type": "address"
        },
        {
          "indexed": true,
          "internalType": "address",
          "name": "to",
          "type": "address"
        },
        {
          "indexed": false,
          "internalType": "uint256",
          "name": "id",
          "type": "uint256"
        },
        {
          "indexed": false,
          "internalType": "uint256",
          "name": "value",
          "type": "uint256"
        }
      ],
      "name": "TransferSingle",
      "type": "event"
    },
    {
      "anonymous": false,
      "inputs": [
        {
          "indexed": false,
          "internalType": "string",
          "name": "value",
          "type": "string"
        },
        {
          "indexed": true,
          "internalType": "uint256",
          "name": "id",
          "type": "uint256"
        }
      ],
      "name": "URI",
      "type": "event"
    },
    {
      "inputs": [],
      "name": "CASTLE",
      "outputs": [
        {
          "internalType": "uint256",
          "name": "",
          "type": "uint256"
        }
      ],
      "stateMutability": "view",
      "type": "function"
    },
    {
      "inputs": [],
      "name": "FARM",
      "outputs": [
        {
          "internalType": "uint256",
          "name": "",
          "type": "uint256"
        }
      ],
      "stateMutability": "view",
      "type": "function"
    },
    {
      "inputs": [],
      "name": "MILL",
      "outputs": [
        {
          "internalType": "uint256",
          "name": "",
          "type": "uint256"
        }
      ],
      "stateMutability": "view",
      "type": "function"
    },
    {
      "inputs": [],
      "name": "MINE",
      "outputs": [
        {
          "internalType": "uint256",
          "name": "",
          "type": "uint256"
        }
      ],
      "stateMutability": "view",
      "type": "function"
    },
    {
      "inputs": [],
      "name": "VILLAGE",
      "outputs": [
        {
          "internalType": "uint256",
          "name": "",
          "type": "uint256"
        }
      ],
      "stateMutability": "view",
      "type": "function"
    },
    {
      "inputs": [
        {
          "internalType": "address",
          "name": "account",
          "type": "address"
        },
        {
          "internalType": "uint256",
          "name": "id",
          "type": "uint256"
        }
      ],
      "name": "balanceOf",
      "outputs": [
        {
          "internalType": "uint256",
          "name": "",
          "type": "uint256"
        }
      ],
      "stateMutability": "view",
      "type": "function"
    },
    {
      "inputs": [
        {
          "internalType": "address[]",
          "name": "accounts",
          "type": "address[]"
        },
        {
          "internalType": "uint256[]",
          "name": "ids",
          "type": "uint256[]"
        }
      ],
      "name": "balanceOfBatch",
      "outputs": [
        {
          "internalType": "uint256[]",
          "name": "",
          "type": "uint256[]"
        }
      ],
      "stateMutability": "view",
      "type": "function"
    },
    {
      "inputs": [
        {
          "internalType": "address",
          "name": "account",
          "type": "address"
        },
        {
          "internalType": "address",
          "name": "operator",
          "type": "address"
        }
      ],
      "name": "isApprovedForAll",
      "outputs": [
        {
          "internalType": "bool",
          "name": "",
          "type": "bool"
        }
      ],
      "stateMutability": "view",
      "type": "function"
    },
    {
      "inputs": [],
      "name": "mintCastle",
      "outputs": [],
      "stateMutability": "nonpayable",
      "type": "function"
    },
    {
      "inputs": [],
      "name": "mintFarm",
      "outputs": [],
      "stateMutability": "nonpayable",
      "type": "function"
    },
    {
      "inputs": [],
      "name": "mintMill",
      "outputs": [],
      "stateMutability": "nonpayable",
      "type": "function"
    },
    {
      "inputs": [],
      "name": "mintMine",
      "outputs": [],
      "stateMutability": "nonpayable",
      "type": "function"
    },
    {
      "inputs": [],
      "name": "mintVillage",
      "outputs": [],
      "stateMutability": "nonpayable",
      "type": "function"
    },
    {
      "inputs": [
        {
          "internalType": "address",
          "name": "from",
          "type": "address"
        },
        {
          "internalType": "address",
          "name": "to",
          "type": "address"
        },
        {
          "internalType": "uint256[]",
          "name": "ids",
          "type": "uint256[]"
        },
        {
          "internalType": "uint256[]",
          "name": "amounts",
          "type": "uint256[]"
        },
        {
          "internalType": "bytes",
          "name": "data",
          "type": "bytes"
        }
      ],
      "name": "safeBatchTransferFrom",
      "outputs": [],
      "stateMutability": "nonpayable",
      "type": "function"
    },
    {
      "inputs": [
        {
          "internalType": "address",
          "name": "from",
          "type": "address"
        },
        {
          "internalType": "address",
          "name": "to",
          "type": "address"
        },
        {
          "internalType": "uint256",
          "name": "id",
          "type": "uint256"
        },
        {
          "internalType": "uint256",
          "name": "amount",
          "type": "uint256"
        },
        {
          "internalType": "bytes",
          "name": "data",
          "type": "bytes"
        }
      ],
      "name": "safeTransferFrom",
      "outputs": [],
      "stateMutability": "nonpayable",
      "type": "function"
    },
    {
      "inputs": [
        {
          "internalType": "address",
          "name": "operator",
          "type": "address"
        },
        {
          "internalType": "bool",
          "name": "approved",
          "type": "bool"
        }
      ],
      "name": "setApprovalForAll",
      "outputs": [],
      "stateMutability": "nonpayable",
      "type": "function"
    },
    {
      "inputs": [
        {
          "internalType": "bytes4",
          "name": "interfaceId",
          "type": "bytes4"
        }
      ],
      "name": "supportsInterface",
      "outputs": [
        {
          "internalType": "bool",
          "name": "",
          "type": "bool"
        }
      ],
      "stateMutability": "view",
      "type": "function"
    },
    {
      "inputs": [
        {
          "internalType": "uint256",
          "name": "",
          "type": "uint256"
        }
      ],
      "name": "uri",
      "outputs": [
        {
          "internalType": "string",
          "name": "",
          "type": "string"
        }
      ],
      "stateMutability": "view",
      "type": "function"
    }
  ],
  "bytecode": "0x60806040523480156200001157600080fd5b506040518060a00160405280606c81526020016200333d606c91396200003d816200004460201b60201c565b5062000175565b80600290805190602001906200005c92919062000060565b5050565b8280546200006e9062000110565b90600052602060002090601f016020900481019282620000925760008555620000de565b82601f10620000ad57805160ff1916838001178555620000de565b82800160010185558215620000de579182015b82811115620000dd578251825591602001919060010190620000c0565b5b509050620000ed9190620000f1565b5090565b5b808211156200010c576000816000905550600101620000f2565b5090565b600060028204905060018216806200012957607f821691505b6020821081141562000140576200013f62000146565b5b50919050565b7f4e487b7100000000000000000000000000000000000000000000000000000000600052602260045260246000fd5b6131b880620001856000396000f3fe608060405234801561001057600080fd5b50600436106101155760003560e01c80635e261594116100a2578063b3a9992e11610071578063b3a9992e146102a8578063bbe8dbca146102c6578063e0a43337146102d0578063e985e9c5146102da578063f242432a1461030a57610115565b80635e261594146102465780635fde1de0146102645780639333d6c01461026e578063a22cb4651461028c57610115565b80632eb2c2d6116100e95780632eb2c2d6146101c857806332e2d659146101e45780634e1273f4146101ee5780634e4f64de1461021e5780635061029d1461022857610115565b8062fdd58e1461011a57806301ffc9a71461014a5780630e89341c1461017a578063231e721b146101aa575b600080fd5b610134600480360381019061012f9190611e93565b610326565b604051610141919061278a565b60405180910390f35b610164600480360381019061015f9190611f4b565b6103ef565b60405161017191906124cd565b60405180910390f35b610194600480360381019061018f9190611fa5565b6104d1565b6040516101a191906124e8565b60405180910390f35b6101b2610565565b6040516101bf919061278a565b60405180910390f35b6101e260048036038101906101dd9190611ced565b61056a565b005b6101ec61060b565b005b61020860048036038101906102039190611ed3565b610737565b6040516102159190612474565b60405180910390f35b610226610850565b005b61023061092e565b60405161023d919061278a565b60405180910390f35b61024e610933565b60405161025b919061278a565b60405180910390f35b61026c610938565b005b610276610a17565b604051610283919061278a565b60405180910390f35b6102a660048036038101906102a19190611e53565b610a1c565b005b6102b0610a32565b6040516102bd919061278a565b60405180910390f35b6102ce610a37565b005b6102d8610ac9565b005b6102f460048036038101906102ef9190611cad565b610bf5565b60405161030191906124cd565b60405180910390f35b610324600480360381019061031f9190611dbc565b610c89565b005b60008073ffffffffffffffffffffffffffffffffffffffff168373ffffffffffffffffffffffffffffffffffffffff161415610397576040517f08c379a000000000000000000000000000000000000000000000000000000000815260040161038e9061256a565b60405180910390fd5b60008083815260200190815260200160002060008473ffffffffffffffffffffffffffffffffffffffff1673ffffffffffffffffffffffffffffffffffffffff16815260200190815260200160002054905092915050565b60007fd9b67a26000000000000000000000000000000000000000000000000000000007bffffffffffffffffffffffffffffffffffffffffffffffffffffffff1916827bffffffffffffffffffffffffffffffffffffffffffffffffffffffff191614806104ba57507f0e89341c000000000000000000000000000000000000000000000000000000007bffffffffffffffffffffffffffffffffffffffffffffffffffffffff1916827bffffffffffffffffffffffffffffffffffffffffffffffffffffffff1916145b806104ca57506104c982610d2a565b5b9050919050565b6060600280546104e0906129f9565b80601f016020809104026020016040519081016040528092919081815260200182805461050c906129f9565b80156105595780601f1061052e57610100808354040283529160200191610559565b820191906000526020600020905b81548152906001019060200180831161053c57829003601f168201915b50505050509050919050565b600081565b610572610d94565b73ffffffffffffffffffffffffffffffffffffffff168573ffffffffffffffffffffffffffffffffffffffff1614806105b857506105b7856105b2610d94565b610bf5565b5b6105f7576040517f08c379a00000000000000000000000000000000000000000000000000000000081526004016105ee906125ca565b60405180910390fd5b6106048585858585610d9c565b5050505050565b6000610618336000610326565b11610658576040517f08c379a000000000000000000000000000000000000000000000000000000000815260040161064f9061266a565b60405180910390fd5b6000610665336002610326565b116106a5576040517f08c379a000000000000000000000000000000000000000000000000000000000815260040161069c9061270a565b60405180910390fd5b60006106b2336003610326565b146106f2576040517f08c379a00000000000000000000000000000000000000000000000000000000081526004016106e99061260a565b60405180910390fd5b61073533600360016040518060400160405280600581526020017f30783030300000000000000000000000000000000000000000000000000000008152506110b0565b565b6060815183511461077d576040517f08c379a0000000000000000000000000000000000000000000000000000000008152600401610774906126ea565b60405180910390fd5b6000835167ffffffffffffffff81111561079a57610799612b32565b5b6040519080825280602002602001820160405280156107c85781602001602082028036833780820191505090505b50905060005b8451811015610845576108158582815181106107ed576107ec612b03565b5b602002602001015185838151811061080857610807612b03565b5b6020026020010151610326565b82828151811061082857610827612b03565b5b6020026020010181815250508061083e90612a5c565b90506107ce565b508091505092915050565b600061085d336000610326565b1161089d576040517f08c379a00000000000000000000000000000000000000000000000000000000081526004016108949061266a565b60405180910390fd5b60006108aa336001610326565b146108ea576040517f08c379a00000000000000000000000000000000000000000000000000000000081526004016108e19061264a565b60405180910390fd5b61092c336001806040518060400160405280600581526020017f30783030300000000000000000000000000000000000000000000000000000008152506110b0565b565b600181565b600481565b6000610945336000610326565b11610985576040517f08c379a000000000000000000000000000000000000000000000000000000000815260040161097c9061266a565b60405180910390fd5b6000610992336002610326565b146109d2576040517f08c379a00000000000000000000000000000000000000000000000000000000081526004016109c9906126aa565b60405180910390fd5b610a1533600260016040518060400160405280600581526020017f30783030300000000000000000000000000000000000000000000000000000008152506110b0565b565b600381565b610a2e610a27610d94565b8383611246565b5050565b600281565b6000610a44336000610326565b14610a84576040517f08c379a0000000000000000000000000000000000000000000000000000000008152600401610a7b9061254a565b60405180910390fd5b610ac733600060016040518060400160405280600581526020017f30783030300000000000000000000000000000000000000000000000000000008152506110b0565b565b6000610ad6336001610326565b11610b16576040517f08c379a0000000000000000000000000000000000000000000000000000000008152600401610b0d9061272a565b60405180910390fd5b6000610b23336003610326565b11610b63576040517f08c379a0000000000000000000000000000000000000000000000000000000008152600401610b5a9061268a565b60405180910390fd5b6000610b70336004610326565b14610bb0576040517f08c379a0000000000000000000000000000000000000000000000000000000008152600401610ba7906125ea565b60405180910390fd5b610bf333600460016040518060400160405280600581526020017f30783030300000000000000000000000000000000000000000000000000000008152506110b0565b565b6000600160008473ffffffffffffffffffffffffffffffffffffffff1673ffffffffffffffffffffffffffffffffffffffff16815260200190815260200160002060008373ffffffffffffffffffffffffffffffffffffffff1673ffffffffffffffffffffffffffffffffffffffff16815260200190815260200160002060009054906101000a900460ff16905092915050565b610c91610d94565b73ffffffffffffffffffffffffffffffffffffffff168573ffffffffffffffffffffffffffffffffffffffff161480610cd75750610cd685610cd1610d94565b610bf5565b5b610d16576040517f08c379a0000000000000000000000000000000000000000000000000000000008152600401610d0d9061258a565b60405180910390fd5b610d2385858585856113b3565b5050505050565b60007f01ffc9a7000000000000000000000000000000000000000000000000000000007bffffffffffffffffffffffffffffffffffffffffffffffffffffffff1916827bffffffffffffffffffffffffffffffffffffffffffffffffffffffff1916149050919050565b600033905090565b8151835114610de0576040517f08c379a0000000000000000000000000000000000000000000000000000000008152600401610dd79061274a565b60405180910390fd5b600073ffffffffffffffffffffffffffffffffffffffff168473ffffffffffffffffffffffffffffffffffffffff161415610e50576040517f08c379a0000000000000000000000000000000000000000000000000000000008152600401610e47906125aa565b60405180910390fd5b6000610e5a610d94565b9050610e6a818787878787611635565b60005b845181101561101b576000858281518110610e8b57610e8a612b03565b5b602002602001015190506000858381518110610eaa57610ea9612b03565b5b60200260200101519050600080600084815260200190815260200160002060008b73ffffffffffffffffffffffffffffffffffffffff1673ffffffffffffffffffffffffffffffffffffffff16815260200190815260200160002054905081811015610f4b576040517f08c379a0000000000000000000000000000000000000000000000000000000008152600401610f429061262a565b60405180910390fd5b81810360008085815260200190815260200160002060008c73ffffffffffffffffffffffffffffffffffffffff1673ffffffffffffffffffffffffffffffffffffffff168152602001908152602001600020819055508160008085815260200190815260200160002060008b73ffffffffffffffffffffffffffffffffffffffff1673ffffffffffffffffffffffffffffffffffffffff168152602001908152602001600020600082825461100091906128ed565b925050819055505050508061101490612a5c565b9050610e6d565b508473ffffffffffffffffffffffffffffffffffffffff168673ffffffffffffffffffffffffffffffffffffffff168273ffffffffffffffffffffffffffffffffffffffff167f4a39dc06d4c0dbc64b70af90fd698a233a518aa5d07e595d983b8c0526c8f7fb8787604051611092929190612496565b60405180910390a46110a881878787878761163d565b505050505050565b600073ffffffffffffffffffffffffffffffffffffffff168473ffffffffffffffffffffffffffffffffffffffff161415611120576040517f08c379a00000000000000000000000000000000000000000000000000000000081526004016111179061276a565b60405180910390fd5b600061112a610d94565b905061114b8160008761113c88611824565b61114588611824565b87611635565b8260008086815260200190815260200160002060008773ffffffffffffffffffffffffffffffffffffffff1673ffffffffffffffffffffffffffffffffffffffff16815260200190815260200160002060008282546111aa91906128ed565b925050819055508473ffffffffffffffffffffffffffffffffffffffff16600073ffffffffffffffffffffffffffffffffffffffff168273ffffffffffffffffffffffffffffffffffffffff167fc3d58168c5ae7397731d063d5bbf3d657854427343f4c083240f7aacaa2d0f6287876040516112289291906127a5565b60405180910390a461123f8160008787878761189e565b5050505050565b8173ffffffffffffffffffffffffffffffffffffffff168373ffffffffffffffffffffffffffffffffffffffff1614156112b5576040517f08c379a00000000000000000000000000000000000000000000000000000000081526004016112ac906126ca565b60405180910390fd5b80600160008573ffffffffffffffffffffffffffffffffffffffff1673ffffffffffffffffffffffffffffffffffffffff16815260200190815260200160002060008473ffffffffffffffffffffffffffffffffffffffff1673ffffffffffffffffffffffffffffffffffffffff16815260200190815260200160002060006101000a81548160ff0219169083151502179055508173ffffffffffffffffffffffffffffffffffffffff168373ffffffffffffffffffffffffffffffffffffffff167f17307eab39ab6107e8899845ad3d59bd9653f200f220920489ca2b5937696c31836040516113a691906124cd565b60405180910390a3505050565b600073ffffffffffffffffffffffffffffffffffffffff168473ffffffffffffffffffffffffffffffffffffffff161415611423576040517f08c379a000000000000000000000000000000000000000000000000000000000815260040161141a906125aa565b60405180910390fd5b600061142d610d94565b905061144d81878761143e88611824565b61144788611824565b87611635565b600080600086815260200190815260200160002060008873ffffffffffffffffffffffffffffffffffffffff1673ffffffffffffffffffffffffffffffffffffffff168152602001908152602001600020549050838110156114e4576040517f08c379a00000000000000000000000000000000000000000000000000000000081526004016114db9061262a565b60405180910390fd5b83810360008087815260200190815260200160002060008973ffffffffffffffffffffffffffffffffffffffff1673ffffffffffffffffffffffffffffffffffffffff168152602001908152602001600020819055508360008087815260200190815260200160002060008873ffffffffffffffffffffffffffffffffffffffff1673ffffffffffffffffffffffffffffffffffffffff168152602001908152602001600020600082825461159991906128ed565b925050819055508573ffffffffffffffffffffffffffffffffffffffff168773ffffffffffffffffffffffffffffffffffffffff168373ffffffffffffffffffffffffffffffffffffffff167fc3d58168c5ae7397731d063d5bbf3d657854427343f4c083240f7aacaa2d0f6288886040516116169291906127a5565b60405180910390a461162c82888888888861189e565b50505050505050565b505050505050565b61165c8473ffffffffffffffffffffffffffffffffffffffff16611a85565b1561181c578373ffffffffffffffffffffffffffffffffffffffff1663bc197c8187878686866040518663ffffffff1660e01b81526004016116a29594939291906123b2565b602060405180830381600087803b1580156116bc57600080fd5b505af19250505080156116ed57506040513d601f19601f820116820180604052508101906116ea9190611f78565b60015b611793576116f9612b61565b806308c379a01415611756575061170e613090565b806117195750611758565b806040517f08c379a000000000000000000000000000000000000000000000000000000000815260040161174d91906124e8565b60405180910390fd5b505b6040517f08c379a000000000000000000000000000000000000000000000000000000000815260040161178a9061250a565b60405180910390fd5b63bc197c8160e01b7bffffffffffffffffffffffffffffffffffffffffffffffffffffffff1916817bffffffffffffffffffffffffffffffffffffffffffffffffffffffff19161461181a576040517f08c379a00000000000000000000000000000000000000000000000000000000081526004016118119061252a565b60405180910390fd5b505b505050505050565b60606000600167ffffffffffffffff81111561184357611842612b32565b5b6040519080825280602002602001820160405280156118715781602001602082028036833780820191505090505b509050828160008151811061188957611888612b03565b5b60200260200101818152505080915050919050565b6118bd8473ffffffffffffffffffffffffffffffffffffffff16611a85565b15611a7d578373ffffffffffffffffffffffffffffffffffffffff1663f23a6e6187878686866040518663ffffffff1660e01b815260040161190395949392919061241a565b602060405180830381600087803b15801561191d57600080fd5b505af192505050801561194e57506040513d601f19601f8201168201806040525081019061194b9190611f78565b60015b6119f45761195a612b61565b806308c379a014156119b7575061196f613090565b8061197a57506119b9565b806040517f08c379a00000000000000000000000000000000000000000000000000000000081526004016119ae91906124e8565b60405180910390fd5b505b6040517f08c379a00000000000000000000000000000000000000000000000000000000081526004016119eb9061250a565b60405180910390fd5b63f23a6e6160e01b7bffffffffffffffffffffffffffffffffffffffffffffffffffffffff1916817bffffffffffffffffffffffffffffffffffffffffffffffffffffffff191614611a7b576040517f08c379a0000000000000000000000000000000000000000000000000000000008152600401611a729061252a565b60405180910390fd5b505b505050505050565b600080823b905060008111915050919050565b6000611aab611aa6846127f3565b6127ce565b90508083825260208201905082856020860282011115611ace57611acd612b88565b5b60005b85811015611afe5781611ae48882611bba565b845260208401935060208301925050600181019050611ad1565b5050509392505050565b6000611b1b611b168461281f565b6127ce565b90508083825260208201905082856020860282011115611b3e57611b3d612b88565b5b60005b85811015611b6e5781611b548882611c98565b845260208401935060208301925050600181019050611b41565b5050509392505050565b6000611b8b611b868461284b565b6127ce565b905082815260208101848484011115611ba757611ba6612b8d565b5b611bb28482856129b7565b509392505050565b600081359050611bc981613126565b92915050565b600082601f830112611be457611be3612b83565b5b8135611bf4848260208601611a98565b91505092915050565b600082601f830112611c1257611c11612b83565b5b8135611c22848260208601611b08565b91505092915050565b600081359050611c3a8161313d565b92915050565b600081359050611c4f81613154565b92915050565b600081519050611c6481613154565b92915050565b600082601f830112611c7f57611c7e612b83565b5b8135611c8f848260208601611b78565b91505092915050565b600081359050611ca78161316b565b92915050565b60008060408385031215611cc457611cc3612b97565b5b6000611cd285828601611bba565b9250506020611ce385828601611bba565b9150509250929050565b600080600080600060a08688031215611d0957611d08612b97565b5b6000611d1788828901611bba565b9550506020611d2888828901611bba565b945050604086013567ffffffffffffffff811115611d4957611d48612b92565b5b611d5588828901611bfd565b935050606086013567ffffffffffffffff811115611d7657611d75612b92565b5b611d8288828901611bfd565b925050608086013567ffffffffffffffff811115611da357611da2612b92565b5b611daf88828901611c6a565b9150509295509295909350565b600080600080600060a08688031215611dd857611dd7612b97565b5b6000611de688828901611bba565b9550506020611df788828901611bba565b9450506040611e0888828901611c98565b9350506060611e1988828901611c98565b925050608086013567ffffffffffffffff811115611e3a57611e39612b92565b5b611e4688828901611c6a565b9150509295509295909350565b60008060408385031215611e6a57611e69612b97565b5b6000611e7885828601611bba565b9250506020611e8985828601611c2b565b9150509250929050565b60008060408385031215611eaa57611ea9612b97565b5b6000611eb885828601611bba565b9250506020611ec985828601611c98565b9150509250929050565b60008060408385031215611eea57611ee9612b97565b5b600083013567ffffffffffffffff811115611f0857611f07612b92565b5b611f1485828601611bcf565b925050602083013567ffffffffffffffff811115611f3557611f34612b92565b5b611f4185828601611bfd565b9150509250929050565b600060208284031215611f6157611f60612b97565b5b6000611f6f84828501611c40565b91505092915050565b600060208284031215611f8e57611f8d612b97565b5b6000611f9c84828501611c55565b91505092915050565b600060208284031215611fbb57611fba612b97565b5b6000611fc984828501611c98565b91505092915050565b6000611fde8383612394565b60208301905092915050565b611ff381612943565b82525050565b60006120048261288c565b61200e81856128ba565b93506120198361287c565b8060005b8381101561204a5781516120318882611fd2565b975061203c836128ad565b92505060018101905061201d565b5085935050505092915050565b61206081612955565b82525050565b600061207182612897565b61207b81856128cb565b935061208b8185602086016129c6565b61209481612b9c565b840191505092915050565b60006120aa826128a2565b6120b481856128dc565b93506120c48185602086016129c6565b6120cd81612b9c565b840191505092915050565b60006120e56034836128dc565b91506120f082612bba565b604082019050919050565b60006121086028836128dc565b915061211382612c09565b604082019050919050565b600061212b601b836128dc565b915061213682612c58565b602082019050919050565b600061214e602b836128dc565b915061215982612c81565b604082019050919050565b60006121716029836128dc565b915061217c82612cd0565b604082019050919050565b60006121946025836128dc565b915061219f82612d1f565b604082019050919050565b60006121b76032836128dc565b91506121c282612d6e565b604082019050919050565b60006121da6019836128dc565b91506121e582612dbd565b602082019050919050565b60006121fd6017836128dc565b915061220882612de6565b602082019050919050565b6000612220602a836128dc565b915061222b82612e0f565b604082019050919050565b60006122436017836128dc565b915061224e82612e5e565b602082019050919050565b60006122666017836128dc565b915061227182612e87565b602082019050919050565b60006122896014836128dc565b915061229482612eb0565b602082019050919050565b60006122ac6017836128dc565b91506122b782612ed9565b602082019050919050565b60006122cf6029836128dc565b91506122da82612f02565b604082019050919050565b60006122f26029836128dc565b91506122fd82612f51565b604082019050919050565b60006123156014836128dc565b915061232082612fa0565b602082019050919050565b60006123386014836128dc565b915061234382612fc9565b602082019050919050565b600061235b6028836128dc565b915061236682612ff2565b604082019050919050565b600061237e6021836128dc565b915061238982613041565b604082019050919050565b61239d816129ad565b82525050565b6123ac816129ad565b82525050565b600060a0820190506123c76000830188611fea565b6123d46020830187611fea565b81810360408301526123e68186611ff9565b905081810360608301526123fa8185611ff9565b9050818103608083015261240e8184612066565b90509695505050505050565b600060a08201905061242f6000830188611fea565b61243c6020830187611fea565b61244960408301866123a3565b61245660608301856123a3565b81810360808301526124688184612066565b90509695505050505050565b6000602082019050818103600083015261248e8184611ff9565b905092915050565b600060408201905081810360008301526124b08185611ff9565b905081810360208301526124c48184611ff9565b90509392505050565b60006020820190506124e26000830184612057565b92915050565b60006020820190508181036000830152612502818461209f565b905092915050565b60006020820190508181036000830152612523816120d8565b9050919050565b60006020820190508181036000830152612543816120fb565b9050919050565b600060208201905081810360008301526125638161211e565b9050919050565b6000602082019050818103600083015261258381612141565b9050919050565b600060208201905081810360008301526125a381612164565b9050919050565b600060208201905081810360008301526125c381612187565b9050919050565b600060208201905081810360008301526125e3816121aa565b9050919050565b60006020820190508181036000830152612603816121cd565b9050919050565b60006020820190508181036000830152612623816121f0565b9050919050565b6000602082019050818103600083015261264381612213565b9050919050565b6000602082019050818103600083015261266381612236565b9050919050565b6000602082019050818103600083015261268381612259565b9050919050565b600060208201905081810360008301526126a38161227c565b9050919050565b600060208201905081810360008301526126c38161229f565b9050919050565b600060208201905081810360008301526126e3816122c2565b9050919050565b60006020820190508181036000830152612703816122e5565b9050919050565b6000602082019050818103600083015261272381612308565b9050919050565b600060208201905081810360008301526127438161232b565b9050919050565b600060208201905081810360008301526127638161234e565b9050919050565b6000602082019050818103600083015261278381612371565b9050919050565b600060208201905061279f60008301846123a3565b92915050565b60006040820190506127ba60008301856123a3565b6127c760208301846123a3565b9392505050565b60006127d86127e9565b90506127e48282612a2b565b919050565b6000604051905090565b600067ffffffffffffffff82111561280e5761280d612b32565b5b602082029050602081019050919050565b600067ffffffffffffffff82111561283a57612839612b32565b5b602082029050602081019050919050565b600067ffffffffffffffff82111561286657612865612b32565b5b61286f82612b9c565b9050602081019050919050565b6000819050602082019050919050565b600081519050919050565b600081519050919050565b600081519050919050565b6000602082019050919050565b600082825260208201905092915050565b600082825260208201905092915050565b600082825260208201905092915050565b60006128f8826129ad565b9150612903836129ad565b9250827fffffffffffffffffffffffffffffffffffffffffffffffffffffffffffffffff0382111561293857612937612aa5565b5b828201905092915050565b600061294e8261298d565b9050919050565b60008115159050919050565b60007fffffffff0000000000000000000000000000000000000000000000000000000082169050919050565b600073ffffffffffffffffffffffffffffffffffffffff82169050919050565b6000819050919050565b82818337600083830152505050565b60005b838110156129e45780820151818401526020810190506129c9565b838111156129f3576000848401525b50505050565b60006002820490506001821680612a1157607f821691505b60208210811415612a2557612a24612ad4565b5b50919050565b612a3482612b9c565b810181811067ffffffffffffffff82111715612a5357612a52612b32565b5b80604052505050565b6000612a67826129ad565b91507fffffffffffffffffffffffffffffffffffffffffffffffffffffffffffffffff821415612a9a57612a99612aa5565b5b600182019050919050565b7f4e487b7100000000000000000000000000000000000000000000000000000000600052601160045260246000fd5b7f4e487b7100000000000000000000000000000000000000000000000000000000600052602260045260246000fd5b7f4e487b7100000000000000000000000000000000000000000000000000000000600052603260045260246000fd5b7f4e487b7100000000000000000000000000000000000000000000000000000000600052604160045260246000fd5b600060033d1115612b805760046000803e612b7d600051612bad565b90505b90565b600080fd5b600080fd5b600080fd5b600080fd5b600080fd5b6000601f19601f8301169050919050565b60008160e01c9050919050565b7f455243313135353a207472616e7366657220746f206e6f6e204552433131353560008201527f526563656976657220696d706c656d656e746572000000000000000000000000602082015250565b7f455243313135353a204552433131353552656365697665722072656a6563746560008201527f6420746f6b656e73000000000000000000000000000000000000000000000000602082015250565b7f796f7520616c7265616479206861766520612056696c6c616765200000000000600082015250565b7f455243313135353a2062616c616e636520717565727920666f7220746865207a60008201527f65726f2061646472657373000000000000000000000000000000000000000000602082015250565b7f455243313135353a2063616c6c6572206973206e6f74206f776e6572206e6f7260008201527f20617070726f7665640000000000000000000000000000000000000000000000602082015250565b7f455243313135353a207472616e7366657220746f20746865207a65726f20616460008201527f6472657373000000000000000000000000000000000000000000000000000000602082015250565b7f455243313135353a207472616e736665722063616c6c6572206973206e6f742060008201527f6f776e6572206e6f7220617070726f7665640000000000000000000000000000602082015250565b7f796f7520616c72656164792068617665206120436173746c6500000000000000600082015250565b7f796f7520616c726561647920686176652061204d696c6c000000000000000000600082015250565b7f455243313135353a20696e73756666696369656e742062616c616e636520666f60008201527f72207472616e7366657200000000000000000000000000000000000000000000602082015250565b7f796f7520616c726561647920686176652061204d696e65000000000000000000600082015250565b7f796f75206e656564206861766520612056696c6c616765000000000000000000600082015250565b7f796f75206e65656420686176652061204d696c6c000000000000000000000000600082015250565b7f796f7520616c726561647920686176652061204661726d000000000000000000600082015250565b7f455243313135353a2073657474696e6720617070726f76616c2073746174757360008201527f20666f722073656c660000000000000000000000000000000000000000000000602082015250565b7f455243313135353a206163636f756e747320616e6420696473206c656e67746860008201527f206d69736d617463680000000000000000000000000000000000000000000000602082015250565b7f796f75206e65656420686176652061204661726d000000000000000000000000600082015250565b7f796f75206e65656420686176652061204d696e65000000000000000000000000600082015250565b7f455243313135353a2069647320616e6420616d6f756e7473206c656e6774682060008201527f6d69736d61746368000000000000000000000000000000000000000000000000602082015250565b7f455243313135353a206d696e7420746f20746865207a65726f2061646472657360008201527f7300000000000000000000000000000000000000000000000000000000000000602082015250565b600060443d10156130a057613123565b6130a86127e9565b60043d036004823e80513d602482011167ffffffffffffffff821117156130d0575050613123565b808201805167ffffffffffffffff8111156130ee5750505050613123565b80602083010160043d03850181111561310b575050505050613123565b61311a82602001850186612a2b565b82955050505050505b90565b61312f81612943565b811461313a57600080fd5b50565b61314681612955565b811461315157600080fd5b50565b61315d81612961565b811461316857600080fd5b50565b613174816129ad565b811461317f57600080fd5b5056fea2646970667358221220c17d8cf0283216d7cbbc31abdab1970195e05ab7af4c444122031e039961fd3e64736f6c6343000807003368747470733a2f2f676174657761792e70696e6174612e636c6f75642f697066732f516d544e333271424b59716e7976617471666e5538726136635955474e7870597a69536464436174456d6f704c522f6d657461646174612f6170692f6974656d2f7b69647d2e6a736f6e",
  "linkReferences": {},
  "deployedLinkReferences": {}
}